{
  "address": "0x377a26Cf6b87a64e57066593d1Feec13B768b3FD",
  "abi": [
    {
      "inputs": [],
      "stateMutability": "nonpayable",
      "type": "constructor"
    },
    {
      "anonymous": false,
      "inputs": [
        {
          "indexed": true,
          "internalType": "address",
          "name": "owner",
          "type": "address"
        },
        {
          "indexed": true,
          "internalType": "address",
          "name": "approved",
          "type": "address"
        },
        {
          "indexed": true,
          "internalType": "uint256",
          "name": "tokenId",
          "type": "uint256"
        }
      ],
      "name": "Approval",
      "type": "event"
    },
    {
      "anonymous": false,
      "inputs": [
        {
          "indexed": true,
          "internalType": "address",
          "name": "owner",
          "type": "address"
        },
        {
          "indexed": true,
          "internalType": "address",
          "name": "operator",
          "type": "address"
        },
        {
          "indexed": false,
          "internalType": "bool",
          "name": "approved",
          "type": "bool"
        }
      ],
      "name": "ApprovalForAll",
      "type": "event"
    },
    {
      "anonymous": false,
      "inputs": [
        {
          "indexed": true,
          "internalType": "uint256",
          "name": "tokenId",
          "type": "uint256"
        },
        {
          "indexed": false,
          "internalType": "string",
          "name": "tokenURI",
          "type": "string"
        }
      ],
      "name": "CreatedEmojiboard",
      "type": "event"
    },
    {
      "anonymous": false,
      "inputs": [
        {
          "indexed": true,
          "internalType": "address",
          "name": "previousOwner",
          "type": "address"
        },
        {
          "indexed": true,
          "internalType": "address",
          "name": "newOwner",
          "type": "address"
        }
      ],
      "name": "OwnershipTransferred",
      "type": "event"
    },
    {
      "anonymous": false,
      "inputs": [
        {
          "indexed": true,
          "internalType": "address",
          "name": "from",
          "type": "address"
        },
        {
          "indexed": true,
          "internalType": "address",
          "name": "to",
          "type": "address"
        },
        {
          "indexed": true,
          "internalType": "uint256",
          "name": "tokenId",
          "type": "uint256"
        }
      ],
      "name": "Transfer",
      "type": "event"
    },
    {
      "inputs": [
        {
          "internalType": "address",
          "name": "to",
          "type": "address"
        },
        {
          "internalType": "uint256",
          "name": "tokenId",
          "type": "uint256"
        }
      ],
      "name": "approve",
      "outputs": [],
      "stateMutability": "nonpayable",
      "type": "function"
    },
    {
      "inputs": [
        {
          "internalType": "address",
          "name": "owner",
          "type": "address"
        }
      ],
      "name": "balanceOf",
      "outputs": [
        {
          "internalType": "uint256",
          "name": "",
          "type": "uint256"
        }
      ],
      "stateMutability": "view",
      "type": "function"
    },
    {
      "inputs": [
        {
          "internalType": "uint256",
          "name": "tokenId",
          "type": "uint256"
        }
      ],
      "name": "getApproved",
      "outputs": [
        {
          "internalType": "address",
          "name": "",
          "type": "address"
        }
      ],
      "stateMutability": "view",
      "type": "function"
    },
    {
      "inputs": [
        {
          "internalType": "address",
          "name": "owner",
          "type": "address"
        },
        {
          "internalType": "address",
          "name": "operator",
          "type": "address"
        }
      ],
      "name": "isApprovedForAll",
      "outputs": [
        {
          "internalType": "bool",
          "name": "",
          "type": "bool"
        }
      ],
      "stateMutability": "view",
      "type": "function"
    },
    {
      "inputs": [
        {
          "internalType": "string[]",
          "name": "_emojis",
          "type": "string[]"
        },
        {
          "internalType": "string[]",
          "name": "_messages",
          "type": "string[]"
        }
      ],
      "name": "mintEmojiverseNFT",
      "outputs": [],
      "stateMutability": "payable",
      "type": "function"
    },
    {
      "inputs": [],
      "name": "mintPrice",
      "outputs": [
        {
          "internalType": "uint256",
          "name": "",
          "type": "uint256"
        }
      ],
      "stateMutability": "view",
      "type": "function"
    },
    {
      "inputs": [],
      "name": "name",
      "outputs": [
        {
          "internalType": "string",
          "name": "",
          "type": "string"
        }
      ],
      "stateMutability": "view",
      "type": "function"
    },
    {
      "inputs": [],
      "name": "owner",
      "outputs": [
        {
          "internalType": "address",
          "name": "",
          "type": "address"
        }
      ],
      "stateMutability": "view",
      "type": "function"
    },
    {
      "inputs": [
        {
          "internalType": "uint256",
          "name": "tokenId",
          "type": "uint256"
        }
      ],
      "name": "ownerOf",
      "outputs": [
        {
          "internalType": "address",
          "name": "",
          "type": "address"
        }
      ],
      "stateMutability": "view",
      "type": "function"
    },
    {
      "inputs": [],
      "name": "renounceOwnership",
      "outputs": [],
      "stateMutability": "nonpayable",
      "type": "function"
    },
    {
      "inputs": [
        {
          "internalType": "address",
          "name": "from",
          "type": "address"
        },
        {
          "internalType": "address",
          "name": "to",
          "type": "address"
        },
        {
          "internalType": "uint256",
          "name": "tokenId",
          "type": "uint256"
        }
      ],
      "name": "safeTransferFrom",
      "outputs": [],
      "stateMutability": "nonpayable",
      "type": "function"
    },
    {
      "inputs": [
        {
          "internalType": "address",
          "name": "from",
          "type": "address"
        },
        {
          "internalType": "address",
          "name": "to",
          "type": "address"
        },
        {
          "internalType": "uint256",
          "name": "tokenId",
          "type": "uint256"
        },
        {
          "internalType": "bytes",
          "name": "_data",
          "type": "bytes"
        }
      ],
      "name": "safeTransferFrom",
      "outputs": [],
      "stateMutability": "nonpayable",
      "type": "function"
    },
    {
      "inputs": [
        {
          "internalType": "address",
          "name": "operator",
          "type": "address"
        },
        {
          "internalType": "bool",
          "name": "approved",
          "type": "bool"
        }
      ],
      "name": "setApprovalForAll",
      "outputs": [],
      "stateMutability": "nonpayable",
      "type": "function"
    },
    {
      "inputs": [
        {
          "internalType": "uint256",
          "name": "newMintPrice",
          "type": "uint256"
        }
      ],
      "name": "setMintPrice",
      "outputs": [],
      "stateMutability": "nonpayable",
      "type": "function"
    },
    {
      "inputs": [
        {
          "internalType": "bytes4",
          "name": "interfaceId",
          "type": "bytes4"
        }
      ],
      "name": "supportsInterface",
      "outputs": [
        {
          "internalType": "bool",
          "name": "",
          "type": "bool"
        }
      ],
      "stateMutability": "view",
      "type": "function"
    },
    {
      "inputs": [],
      "name": "symbol",
      "outputs": [
        {
          "internalType": "string",
          "name": "",
          "type": "string"
        }
      ],
      "stateMutability": "view",
      "type": "function"
    },
    {
      "inputs": [
        {
          "internalType": "uint256",
          "name": "tokenId",
          "type": "uint256"
        }
      ],
      "name": "tokenURI",
      "outputs": [
        {
          "internalType": "string",
          "name": "",
          "type": "string"
        }
      ],
      "stateMutability": "view",
      "type": "function"
    },
    {
      "inputs": [],
      "name": "totalSupply",
      "outputs": [
        {
          "internalType": "uint256",
          "name": "",
          "type": "uint256"
        }
      ],
      "stateMutability": "view",
      "type": "function"
    },
    {
      "inputs": [
        {
          "internalType": "address",
          "name": "from",
          "type": "address"
        },
        {
          "internalType": "address",
          "name": "to",
          "type": "address"
        },
        {
          "internalType": "uint256",
          "name": "tokenId",
          "type": "uint256"
        }
      ],
      "name": "transferFrom",
      "outputs": [],
      "stateMutability": "nonpayable",
      "type": "function"
    },
    {
      "inputs": [
        {
          "internalType": "address",
          "name": "newOwner",
          "type": "address"
        }
      ],
      "name": "transferOwnership",
      "outputs": [],
      "stateMutability": "nonpayable",
      "type": "function"
    },
    {
      "inputs": [],
      "name": "withdraw",
      "outputs": [],
      "stateMutability": "nonpayable",
      "type": "function"
    }
  ],
  "transactionHash": "0xb0319462e647f4d1511fc6976c2845c62adcad20801bb881a537d63f9af5aa65",
  "args": [],
  "solcInputHash": "b14e2892b27198637b2fb3dd1eee8c7c",
  "bytecode": "0x60806040526000600a556040518061080001604052806040518060400160405280601081526020017f72676228312c203133382c20313738290000000000000000000000000000000081525081526020016040518060400160405280601281526020017f726762283130342c203230332c2031373129000000000000000000000000000081525081526020016040518060400160405280601181526020017f726762283131302c2036302c203138382900000000000000000000000000000081525081526020016040518060400160405280601281526020017f726762283131342c203130332c2032303329000000000000000000000000000081525081526020016040518060400160405280601281526020017f726762283131382c203235352c2032323629000000000000000000000000000081525081526020016040518060400160405280601281526020017f726762283131392c203232382c2032313229000000000000000000000000000081525081526020016040518060400160405280601281526020017f726762283135322c203138362c2032333129000000000000000000000000000081525081526020016040518060400160405280601281526020017f726762283135332c203131382c2032353529000000000000000000000000000081525081526020016040518060400160405280601281526020017f726762283135332c203134302c2032333529000000000000000000000000000081525081526020016040518060400160405280601181526020017f726762283135372c203232352c2032322900000000000000000000000000000081525081526020016040518060400160405280601181526020017f726762283135382c203132362c2039332900000000000000000000000000000081525081526020016040518060400160405280601281526020017f726762283136382c203233362c2032333129000000000000000000000000000081525081526020016040518060400160405280601081526020017f726762283137362c20302c20313835290000000000000000000000000000000081525081526020016040518060400160405280601281526020017f726762283137382c203233342c2031313229000000000000000000000000000081525081526020016040518060400160405280601281526020017f726762283138302c203235342c2031353229000000000000000000000000000081525081526020016040518060400160405280601281526020017f726762283138302c203235352c2031393929000000000000000000000000000081525081526020016040518060400160405280601281526020017f726762283138322c203233382c2031373029000000000000000000000000000081525081526020016040518060400160405280601281526020017f726762283138372c203235352c2031353929000000000000000000000000000081525081526020016040518060400160405280601181526020017f726762283139342c2038312c203233372900000000000000000000000000000081525081526020016040518060400160405280601081526020017f726762283139392c2034362c203635290000000000000000000000000000000081525081526020016040518060400160405280601081526020017f726762283230302c2039322c203932290000000000000000000000000000000081525081526020016040518060400160405280601281526020017f726762283230332c203137332c2032353529000000000000000000000000000081525081526020016040518060400160405280601281526020017f726762283230372c203234312c2032303529000000000000000000000000000081525081526020016040518060400160405280601281526020017f726762283230392c203233322c2032323829000000000000000000000000000081525081526020016040518060400160405280601281526020017f726762283231322c203132322c2032333229000000000000000000000000000081525081526020016040518060400160405280601081526020017f726762283232312c2037342c203732290000000000000000000000000000000081525081526020016040518060400160405280601181526020017f726762283232362c203130362c2034342900000000000000000000000000000081525081526020016040518060400160405280601181526020017f726762283232392c203133372c2031302900000000000000000000000000000081525081526020016040518060400160405280601081526020017f726762283233362c2033372c203930290000000000000000000000000000000081525081526020016040518060400160405280601281526020017f726762283233372c203233372c2032333729000000000000000000000000000081525081526020016040518060400160405280601181526020017f726762283234302c203138372c2039382900000000000000000000000000000081525081526020016040518060400160405280601181526020017f726762283234302c2034302c203235322900000000000000000000000000000081525081526020016040518060400160405280601281526020017f726762283234362c203231372c2031393729000000000000000000000000000081525081526020016040518060400160405280601181526020017f726762283234392c203135312c2039332900000000000000000000000000000081525081526020016040518060400160405280601281526020017f726762283234392c203230372c2032343229000000000000000000000000000081525081526020016040518060400160405280601181526020017f726762283235312c203230392c2037322900000000000000000000000000000081525081526020016040518060400160405280601281526020017f726762283235312c203234342c2031303929000000000000000000000000000081525081526020016040518060400160405280601081526020017f726762283235312c203235352c2030290000000000000000000000000000000081525081526020016040518060400160405280601181526020017f726762283235322c203130312c2039372900000000000000000000000000000081525081526020016040518060400160405280601281526020017f726762283235322c203137342c2032323329000000000000000000000000000081525081526020016040518060400160405280601281526020017f726762283235332c203235352c2031343329000000000000000000000000000081525081526020016040518060400160405280601281526020017f726762283235342c203230332c2032323729000000000000000000000000000081525081526020016040518060400160405280600e81526020017f726762283235352c20302c20302900000000000000000000000000000000000081525081526020016040518060400160405280601281526020017f726762283235352c203131342c2031323029000000000000000000000000000081525081526020016040518060400160405280601281526020017f726762283235352c203133392c2031363229000000000000000000000000000081525081526020016040518060400160405280601181526020017f726762283235352c203134342c2035342900000000000000000000000000000081525081526020016040518060400160405280601181526020017f726762283235352c203137312c2037362900000000000000000000000000000081525081526020016040518060400160405280601281526020017f726762283235352c203138332c2031313029000000000000000000000000000081525081526020016040518060400160405280601281526020017f726762283235352c203230382c2031323729000000000000000000000000000081525081526020016040518060400160405280601181526020017f726762283235352c2032322c203134372900000000000000000000000000000081525081526020016040518060400160405280601281526020017f726762283235352c203233312c2031323829000000000000000000000000000081525081526020016040518060400160405280601081526020017f726762283235352c2038312c203831290000000000000000000000000000000081525081526020016040518060400160405280601181526020017f726762283235352c2039352c203132362900000000000000000000000000000081525081526020016040518060400160405280601181526020017f7267622834362c203133302c203235352900000000000000000000000000000081525081526020016040518060400160405280601081526020017f7267622835322c2034392c20313038290000000000000000000000000000000081525081526020016040518060400160405280601081526020017f7267622835372c2036312c20313234290000000000000000000000000000000081525081526020016040518060400160405280600f81526020017f72676228362c2037322c2031323229000000000000000000000000000000000081525081526020016040518060400160405280600f81526020017f7267622836352c2036322c20383329000000000000000000000000000000000081525081526020016040518060400160405280600f81526020017f7267622837332c203235352c203029000000000000000000000000000000000081525081526020016040518060400160405280601081526020017f7267622838312c203134362c203839290000000000000000000000000000000081525081526020016040518060400160405280600f81526020017f7267622838342c2036332c20383829000000000000000000000000000000000081525081526020016040518060400160405280601181526020017f7267622838362c203132332c203133302900000000000000000000000000000081525081526020016040518060400160405280601181526020017f7267622838372c203230352c203232392900000000000000000000000000000081525081526020016040518060400160405280601181526020017f7267622839332c203231312c2032353529000000000000000000000000000000815250815250600b90604062000ee5929190620011cc565b5034801562000ef357600080fd5b506040518060400160405280600a81526020017f456d6f6a697665727365000000000000000000000000000000000000000000008152506040518060400160405280600481526020017f454d4a5600000000000000000000000000000000000000000000000000000000815250816000908051906020019062000f7892919062001233565b50806001908051906020019062000f9192919062001233565b50505062000fb462000fa86200101c60201b60201c565b6200102460201b60201c565b62000fff6040518060400160405280600a81526020017f456d6f6a69766572736500000000000000000000000000000000000000000000815250620010ea60201b620011971760201c565b6200101660086200118d60201b620012301760201c565b6200147e565b600033905090565b6000600760009054906101000a900473ffffffffffffffffffffffffffffffffffffffff16905081600760006101000a81548173ffffffffffffffffffffffffffffffffffffffff021916908373ffffffffffffffffffffffffffffffffffffffff1602179055508173ffffffffffffffffffffffffffffffffffffffff168173ffffffffffffffffffffffffffffffffffffffff167f8be0079c531659141344cd1fd0a4f28419497f9722a3daafe3b4186f6b6457e060405160405180910390a35050565b6200118a81604051602401620011019190620013f5565b6040516020818303038152906040527f41304fac000000000000000000000000000000000000000000000000000000007bffffffffffffffffffffffffffffffffffffffffffffffffffffffff19166020820180517bffffffffffffffffffffffffffffffffffffffffffffffffffffffff8381831617835250505050620011a360201b60201c565b50565b6001816000016000828254019250508190555050565b60008151905060006a636f6e736f6c652e6c6f679050602083016000808483855afa5050505050565b82805482825590600052602060002090810192821562001220579160200282015b828111156200121f5782518290805190602001906200120e92919062001233565b5091602001919060010190620011ed565b5b5090506200122f9190620012c4565b5090565b828054620012419062001448565b90600052602060002090601f016020900481019282620012655760008555620012b1565b82601f106200128057805160ff1916838001178555620012b1565b82800160010185558215620012b1579182015b82811115620012b057825182559160200191906001019062001293565b5b509050620012c09190620012ec565b5090565b5b80821115620012e85760008181620012de91906200130b565b50600101620012c5565b5090565b5b8082111562001307576000816000905550600101620012ed565b5090565b508054620013199062001448565b6000825580601f106200132d57506200134e565b601f0160209004906000526020600020908101906200134d9190620012ec565b5b50565b600081519050919050565b600082825260208201905092915050565b60005b838110156200138d57808201518184015260208101905062001370565b838111156200139d576000848401525b50505050565b6000601f19601f8301169050919050565b6000620013c18262001351565b620013cd81856200135c565b9350620013df8185602086016200136d565b620013ea81620013a3565b840191505092915050565b60006020820190508181036000830152620014118184620013b4565b905092915050565b7f4e487b7100000000000000000000000000000000000000000000000000000000600052602260045260246000fd5b600060028204905060018216806200146157607f821691505b6020821081141562001478576200147762001419565b5b50919050565b615f8e806200148e6000396000f3fe60806040526004361061012a5760003560e01c806370a08231116100ab578063a22cb4651161006f578063a22cb465146103bf578063b88d4fde146103e8578063c87b56dd14610411578063e985e9c51461044e578063f2fde38b1461048b578063f4a0a528146104b45761012a565b806370a08231146102f9578063715018a6146103365780637e1b8bfd1461034d5780638da5cb5b1461036957806395d89b41146103945761012a565b806323b872dd116100f257806323b872dd146102285780633ccfd60b1461025157806342842e0e146102685780636352211e146102915780636817c76c146102ce5761012a565b806301ffc9a71461012f57806306fdde031461016c578063081812fc14610197578063095ea7b3146101d457806318160ddd146101fd575b600080fd5b34801561013b57600080fd5b5061015660048036038101906101519190613be9565b6104dd565b6040516101639190613c31565b60405180910390f35b34801561017857600080fd5b506101816105bf565b60405161018e9190613ce5565b60405180910390f35b3480156101a357600080fd5b506101be60048036038101906101b99190613d3d565b610651565b6040516101cb9190613dab565b60405180910390f35b3480156101e057600080fd5b506101fb60048036038101906101f69190613df2565b6106d6565b005b34801561020957600080fd5b506102126107ee565b60405161021f9190613e41565b60405180910390f35b34801561023457600080fd5b5061024f600480360381019061024a9190613e5c565b61080b565b005b34801561025d57600080fd5b5061026661086b565b005b34801561027457600080fd5b5061028f600480360381019061028a9190613e5c565b610937565b005b34801561029d57600080fd5b506102b860048036038101906102b39190613d3d565b610957565b6040516102c59190613dab565b60405180910390f35b3480156102da57600080fd5b506102e3610a09565b6040516102f09190613e41565b60405180910390f35b34801561030557600080fd5b50610320600480360381019061031b9190613eaf565b610a0f565b60405161032d9190613e41565b60405180910390f35b34801561034257600080fd5b5061034b610ac7565b005b610367600480360381019061036291906140f7565b610b4f565b005b34801561037557600080fd5b5061037e610cff565b60405161038b9190613dab565b60405180910390f35b3480156103a057600080fd5b506103a9610d29565b6040516103b69190613ce5565b60405180910390f35b3480156103cb57600080fd5b506103e660048036038101906103e1919061419b565b610dbb565b005b3480156103f457600080fd5b5061040f600480360381019061040a919061427c565b610dd1565b005b34801561041d57600080fd5b5061043860048036038101906104339190613d3d565b610e33565b6040516104459190613ce5565b60405180910390f35b34801561045a57600080fd5b50610475600480360381019061047091906142ff565b610f85565b6040516104829190613c31565b60405180910390f35b34801561049757600080fd5b506104b260048036038101906104ad9190613eaf565b611019565b005b3480156104c057600080fd5b506104db60048036038101906104d69190613d3d565b611111565b005b60007f80ac58cd000000000000000000000000000000000000000000000000000000007bffffffffffffffffffffffffffffffffffffffffffffffffffffffff1916827bffffffffffffffffffffffffffffffffffffffffffffffffffffffff191614806105a857507f5b5e139f000000000000000000000000000000000000000000000000000000007bffffffffffffffffffffffffffffffffffffffffffffffffffffffff1916827bffffffffffffffffffffffffffffffffffffffffffffffffffffffff1916145b806105b857506105b782611246565b5b9050919050565b6060600080546105ce9061436e565b80601f01602080910402602001604051908101604052809291908181526020018280546105fa9061436e565b80156106475780601f1061061c57610100808354040283529160200191610647565b820191906000526020600020905b81548152906001019060200180831161062a57829003601f168201915b5050505050905090565b600061065c826112b0565b61069b576040517f08c379a000000000000000000000000000000000000000000000000000000000815260040161069290614412565b60405180910390fd5b6004600083815260200190815260200160002060009054906101000a900473ffffffffffffffffffffffffffffffffffffffff169050919050565b60006106e182610957565b90508073ffffffffffffffffffffffffffffffffffffffff168373ffffffffffffffffffffffffffffffffffffffff161415610752576040517f08c379a0000000000000000000000000000000000000000000000000000000008152600401610749906144a4565b60405180910390fd5b8073ffffffffffffffffffffffffffffffffffffffff1661077161131c565b73ffffffffffffffffffffffffffffffffffffffff1614806107a0575061079f8161079a61131c565b610f85565b5b6107df576040517f08c379a00000000000000000000000000000000000000000000000000000000081526004016107d690614536565b60405180910390fd5b6107e98383611324565b505050565b600060016107fc60086113dd565b6108069190614585565b905090565b61081c61081661131c565b826113eb565b61085b576040517f08c379a00000000000000000000000000000000000000000000000000000000081526004016108529061462b565b60405180910390fd5b6108668383836114c9565b505050565b61087361131c565b73ffffffffffffffffffffffffffffffffffffffff16610891610cff565b73ffffffffffffffffffffffffffffffffffffffff16146108e7576040517f08c379a00000000000000000000000000000000000000000000000000000000081526004016108de90614697565b60405180910390fd5b6108ef610cff565b73ffffffffffffffffffffffffffffffffffffffff166108fc479081150290604051600060405180830381858888f19350505050158015610934573d6000803e3d6000fd5b50565b61095283838360405180602001604052806000815250610dd1565b505050565b6000806002600084815260200190815260200160002060009054906101000a900473ffffffffffffffffffffffffffffffffffffffff169050600073ffffffffffffffffffffffffffffffffffffffff168173ffffffffffffffffffffffffffffffffffffffff161415610a00576040517f08c379a00000000000000000000000000000000000000000000000000000000081526004016109f790614729565b60405180910390fd5b80915050919050565b600a5481565b60008073ffffffffffffffffffffffffffffffffffffffff168273ffffffffffffffffffffffffffffffffffffffff161415610a80576040517f08c379a0000000000000000000000000000000000000000000000000000000008152600401610a77906147bb565b60405180910390fd5b600360008373ffffffffffffffffffffffffffffffffffffffff1673ffffffffffffffffffffffffffffffffffffffff168152602001908152602001600020549050919050565b610acf61131c565b73ffffffffffffffffffffffffffffffffffffffff16610aed610cff565b73ffffffffffffffffffffffffffffffffffffffff1614610b43576040517f08c379a0000000000000000000000000000000000000000000000000000000008152600401610b3a90614697565b60405180910390fd5b610b4d6000611725565b565b600a54341015610b94576040517f08c379a0000000000000000000000000000000000000000000000000000000008152600401610b8b90614827565b60405180910390fd5b6000610ba060086113dd565b905060006001845114610bc457610bbf610bba85856117eb565b6123b7565b610bcf565b610bce84846117eb565b5b90506000610bdc8261243d565b9050610be83384612495565b610bf283826124b3565b610c306040518060400160405280601c81526020017f0a2d2d2d2d2d2046696e616c20746f6b656e20555249202d2d2d2d2d00000000815250611197565b610c3981611197565b610c776040518060400160405280601c81526020017f2d2d2d2d2d2d2d2d2d2d2d2d2d2d2d2d2d2d2d2d2d2d2d2d2d2d2d0a00000000815250611197565b610c89610c8460096113dd565b612527565b610c936008611230565b610c9d60096125c0565b610cc0604051806060016040528060258152602001615e9d6025913984336125cd565b827f160ea601f1dbe90824551e3707e1d0b908e696b55d7216597e1e878b29e6543582604051610cf09190613ce5565b60405180910390a25050505050565b6000600760009054906101000a900473ffffffffffffffffffffffffffffffffffffffff16905090565b606060018054610d389061436e565b80601f0160208091040260200160405190810160405280929190818152602001828054610d649061436e565b8015610db15780601f10610d8657610100808354040283529160200191610db1565b820191906000526020600020905b815481529060010190602001808311610d9457829003601f168201915b5050505050905090565b610dcd610dc661131c565b838361266c565b5050565b610de2610ddc61131c565b836113eb565b610e21576040517f08c379a0000000000000000000000000000000000000000000000000000000008152600401610e189061462b565b60405180910390fd5b610e2d848484846127d9565b50505050565b6060610e3e826112b0565b610e7d576040517f08c379a0000000000000000000000000000000000000000000000000000000008152600401610e74906148b9565b60405180910390fd5b6000600660008481526020019081526020016000208054610e9d9061436e565b80601f0160208091040260200160405190810160405280929190818152602001828054610ec99061436e565b8015610f165780601f10610eeb57610100808354040283529160200191610f16565b820191906000526020600020905b815481529060010190602001808311610ef957829003601f168201915b505050505090506000610f27612835565b9050600081511415610f3d578192505050610f80565b600082511115610f72578082604051602001610f5a929190614915565b60405160208183030381529060405292505050610f80565b610f7b8461284c565b925050505b919050565b6000600560008473ffffffffffffffffffffffffffffffffffffffff1673ffffffffffffffffffffffffffffffffffffffff16815260200190815260200160002060008373ffffffffffffffffffffffffffffffffffffffff1673ffffffffffffffffffffffffffffffffffffffff16815260200190815260200160002060009054906101000a900460ff16905092915050565b61102161131c565b73ffffffffffffffffffffffffffffffffffffffff1661103f610cff565b73ffffffffffffffffffffffffffffffffffffffff1614611095576040517f08c379a000000000000000000000000000000000000000000000000000000000815260040161108c90614697565b60405180910390fd5b600073ffffffffffffffffffffffffffffffffffffffff168173ffffffffffffffffffffffffffffffffffffffff161415611105576040517f08c379a00000000000000000000000000000000000000000000000000000000081526004016110fc906149ab565b60405180910390fd5b61110e81611725565b50565b61111961131c565b73ffffffffffffffffffffffffffffffffffffffff16611137610cff565b73ffffffffffffffffffffffffffffffffffffffff161461118d576040517f08c379a000000000000000000000000000000000000000000000000000000000815260040161118490614697565b60405180910390fd5b80600a8190555050565b61122d816040516024016111ab9190613ce5565b6040516020818303038152906040527f41304fac000000000000000000000000000000000000000000000000000000007bffffffffffffffffffffffffffffffffffffffffffffffffffffffff19166020820180517bffffffffffffffffffffffffffffffffffffffffffffffffffffffff83818316178352505050506128f3565b50565b6001816000016000828254019250508190555050565b60007f01ffc9a7000000000000000000000000000000000000000000000000000000007bffffffffffffffffffffffffffffffffffffffffffffffffffffffff1916827bffffffffffffffffffffffffffffffffffffffffffffffffffffffff1916149050919050565b60008073ffffffffffffffffffffffffffffffffffffffff166002600084815260200190815260200160002060009054906101000a900473ffffffffffffffffffffffffffffffffffffffff1673ffffffffffffffffffffffffffffffffffffffff1614159050919050565b600033905090565b816004600083815260200190815260200160002060006101000a81548173ffffffffffffffffffffffffffffffffffffffff021916908373ffffffffffffffffffffffffffffffffffffffff160217905550808273ffffffffffffffffffffffffffffffffffffffff1661139783610957565b73ffffffffffffffffffffffffffffffffffffffff167f8c5be1e5ebec7d5bd14f71427d1e84f3dd0314c0f7b2291e5b200ac8c7c3b92560405160405180910390a45050565b600081600001549050919050565b60006113f6826112b0565b611435576040517f08c379a000000000000000000000000000000000000000000000000000000000815260040161142c90614a3d565b60405180910390fd5b600061144083610957565b90508073ffffffffffffffffffffffffffffffffffffffff168473ffffffffffffffffffffffffffffffffffffffff1614806114af57508373ffffffffffffffffffffffffffffffffffffffff1661149784610651565b73ffffffffffffffffffffffffffffffffffffffff16145b806114c057506114bf8185610f85565b5b91505092915050565b8273ffffffffffffffffffffffffffffffffffffffff166114e982610957565b73ffffffffffffffffffffffffffffffffffffffff161461153f576040517f08c379a000000000000000000000000000000000000000000000000000000000815260040161153690614acf565b60405180910390fd5b600073ffffffffffffffffffffffffffffffffffffffff168273ffffffffffffffffffffffffffffffffffffffff1614156115af576040517f08c379a00000000000000000000000000000000000000000000000000000000081526004016115a690614b61565b60405180910390fd5b6115ba83838361291c565b6115c5600082611324565b6001600360008573ffffffffffffffffffffffffffffffffffffffff1673ffffffffffffffffffffffffffffffffffffffff16815260200190815260200160002060008282546116159190614585565b925050819055506001600360008473ffffffffffffffffffffffffffffffffffffffff1673ffffffffffffffffffffffffffffffffffffffff168152602001908152602001600020600082825461166c9190614b81565b92505081905550816002600083815260200190815260200160002060006101000a81548173ffffffffffffffffffffffffffffffffffffffff021916908373ffffffffffffffffffffffffffffffffffffffff160217905550808273ffffffffffffffffffffffffffffffffffffffff168473ffffffffffffffffffffffffffffffffffffffff167fddf252ad1be2c89b69c2b068fc378daa952ba7f163c4a11628f55a4df523b3ef60405160405180910390a4505050565b6000600760009054906101000a900473ffffffffffffffffffffffffffffffffffffffff16905081600760006101000a81548173ffffffffffffffffffffffffffffffffffffffff021916908373ffffffffffffffffffffffffffffffffffffffff1602179055508173ffffffffffffffffffffffffffffffffffffffff168173ffffffffffffffffffffffffffffffffffffffff167f8be0079c531659141344cd1fd0a4f28419497f9722a3daafe3b4186f6b6457e060405160405180910390a35050565b606061182b6040518060400160405280600e81526020017f47656e65726174696e6720535647000000000000000000000000000000000000815250611197565b61186b6040518060400160405280601381526020017f4e756d626572206f66206d657373616765733a000000000000000000000000008152508351612921565b600060014361187a9190614585565b4061188560086113dd565b604051602001611896929190614c23565b6040516020818303038152906040528051906020012060001c90506001845114156119fe5760006118fd856000815181106118d4576118d3614c4f565b5b6020026020010151856000815181106118f0576118ef614c4f565b5b60200260200101516129bd565b905060006119aa8260006002811061191857611917614c4f565b5b60200201518360016002811061193157611930614c4f565b5b602002015160046040518060400160405280600181526020017f30000000000000000000000000000000000000000000000000000000000000008152506040518060400160405280600181526020017f300000000000000000000000000000000000000000000000000000000000000081525088612aa5565b90506119d4816040516020016119c09190614c7e565b604051602081830303815290604052611197565b806040516020016119e59190614c7e565b60405160208183030381529060405293505050506123b1565b600284511415611c42576000611a4a85600081518110611a2157611a20614c4f565b5b602002602001015185600081518110611a3d57611a3c614c4f565b5b60200260200101516129bd565b90506000611af782600060028110611a6557611a64614c4f565b5b602002015183600160028110611a7e57611a7d614c4f565b5b602002015160026040518060400160405280600181526020017f30000000000000000000000000000000000000000000000000000000000000008152506040518060400160405280600181526020017f300000000000000000000000000000000000000000000000000000000000000081525088612aa5565b90506000611b3b87600181518110611b1257611b11614c4f565b5b602002602001015187600181518110611b2e57611b2d614c4f565b5b60200260200101516129bd565b90506000611be882600060028110611b5657611b55614c4f565b5b602002015183600160028110611b6f57611b6e614c4f565b5b602002015160026040518060400160405280600181526020017f30000000000000000000000000000000000000000000000000000000000000008152506040518060400160405280600381526020017f34303000000000000000000000000000000000000000000000000000000000008152508a612aa5565b9050611c148382604051602001611c00929190614915565b604051602081830303815290604052611197565b8281604051602001611c27929190614915565b604051602081830303815290604052955050505050506123b1565b600384511415611f7d576000611c8e85600081518110611c6557611c64614c4f565b5b602002602001015185600081518110611c8157611c80614c4f565b5b60200260200101516129bd565b90506000611d3b82600060028110611ca957611ca8614c4f565b5b602002015183600160028110611cc257611cc1614c4f565b5b602002015160026040518060400160405280600181526020017f30000000000000000000000000000000000000000000000000000000000000008152506040518060400160405280600181526020017f300000000000000000000000000000000000000000000000000000000000000081525088612aa5565b90506000611d7f87600181518110611d5657611d55614c4f565b5b602002602001015187600181518110611d7257611d71614c4f565b5b60200260200101516129bd565b90506000611e2c82600060028110611d9a57611d99614c4f565b5b602002015183600160028110611db357611db2614c4f565b5b602002015160016040518060400160405280600181526020017f30000000000000000000000000000000000000000000000000000000000000008152506040518060400160405280600381526020017f34303000000000000000000000000000000000000000000000000000000000008152508a612aa5565b90506000611e7089600281518110611e4757611e46614c4f565b5b602002602001015189600281518110611e6357611e62614c4f565b5b60200260200101516129bd565b90506000611f1d82600060028110611e8b57611e8a614c4f565b5b602002015183600160028110611ea457611ea3614c4f565b5b602002015160016040518060400160405280600381526020017f34303000000000000000000000000000000000000000000000000000000000008152506040518060400160405280600381526020017f34303000000000000000000000000000000000000000000000000000000000008152508c612aa5565b9050611f4b858483604051602001611f3793929190614c95565b604051602081830303815290604052611197565b848382604051602001611f6093929190614c95565b6040516020818303038152906040529750505050505050506123b1565b6004845114156123af576000611fc985600081518110611fa057611f9f614c4f565b5b602002602001015185600081518110611fbc57611fbb614c4f565b5b60200260200101516129bd565b9050600061207682600060028110611fe457611fe3614c4f565b5b602002015183600160028110611ffd57611ffc614c4f565b5b602002015160016040518060400160405280600181526020017f30000000000000000000000000000000000000000000000000000000000000008152506040518060400160405280600181526020017f300000000000000000000000000000000000000000000000000000000000000081525088612aa5565b905060006120ba8760018151811061209157612090614c4f565b5b6020026020010151876001815181106120ad576120ac614c4f565b5b60200260200101516129bd565b90506000612167826000600281106120d5576120d4614c4f565b5b6020020151836001600281106120ee576120ed614c4f565b5b602002015160016040518060400160405280600381526020017f34303000000000000000000000000000000000000000000000000000000000008152506040518060400160405280600181526020017f30000000000000000000000000000000000000000000000000000000000000008152508a612aa5565b905060006121ab8960028151811061218257612181614c4f565b5b60200260200101518960028151811061219e5761219d614c4f565b5b60200260200101516129bd565b90506000612258826000600281106121c6576121c5614c4f565b5b6020020151836001600281106121df576121de614c4f565b5b602002015160016040518060400160405280600181526020017f30000000000000000000000000000000000000000000000000000000000000008152506040518060400160405280600381526020017f34303000000000000000000000000000000000000000000000000000000000008152508c612aa5565b9050600061229c8b60038151811061227357612272614c4f565b5b60200260200101518b60038151811061228f5761228e614c4f565b5b60200260200101516129bd565b90506000612349826000600281106122b7576122b6614c4f565b5b6020020151836001600281106122d0576122cf614c4f565b5b602002015160016040518060400160405280600381526020017f34303000000000000000000000000000000000000000000000000000000000008152506040518060400160405280600381526020017f34303000000000000000000000000000000000000000000000000000000000008152508e612aa5565b9050612379878685846040516020016123659493929190614cc6565b604051602081830303815290604052611197565b868584836040516020016123909493929190614cc6565b60405160208183030381529060405299505050505050505050506123b1565b505b92915050565b60606000604051806080016040528060578152602001615ec260579139905060006040518060400160405280600681526020017f3c2f7376673e0000000000000000000000000000000000000000000000000000815250905081848260405160200161242593929190614c95565b60405160208183030381529060405292505050919050565b606061246f61244b83612b09565b60405160200161245b9190614e80565b604051602081830303815290604052612b09565b60405160200161247f9190614f0f565b6040516020818303038152906040529050919050565b6124af828260405180602001604052806000815250612ca1565b5050565b6124bc826112b0565b6124fb576040517f08c379a00000000000000000000000000000000000000000000000000000000081526004016124f290614fa3565b60405180910390fd5b80600660008481526020019081526020016000209080519060200190612522929190613ab3565b505050565b6125bd8160405160240161253b9190613e41565b6040516020818303038152906040527ff5b1bba9000000000000000000000000000000000000000000000000000000007bffffffffffffffffffffffffffffffffffffffffffffffffffffffff19166020820180517bffffffffffffffffffffffffffffffffffffffffffffffffffffffff83818316178352505050506128f3565b50565b6000816000018190555050565b6126678383836040516024016125e593929190614fc3565b6040516020818303038152906040527fe3849f79000000000000000000000000000000000000000000000000000000007bffffffffffffffffffffffffffffffffffffffffffffffffffffffff19166020820180517bffffffffffffffffffffffffffffffffffffffffffffffffffffffff83818316178352505050506128f3565b505050565b8173ffffffffffffffffffffffffffffffffffffffff168373ffffffffffffffffffffffffffffffffffffffff1614156126db576040517f08c379a00000000000000000000000000000000000000000000000000000000081526004016126d29061504d565b60405180910390fd5b80600560008573ffffffffffffffffffffffffffffffffffffffff1673ffffffffffffffffffffffffffffffffffffffff16815260200190815260200160002060008473ffffffffffffffffffffffffffffffffffffffff1673ffffffffffffffffffffffffffffffffffffffff16815260200190815260200160002060006101000a81548160ff0219169083151502179055508173ffffffffffffffffffffffffffffffffffffffff168373ffffffffffffffffffffffffffffffffffffffff167f17307eab39ab6107e8899845ad3d59bd9653f200f220920489ca2b5937696c31836040516127cc9190613c31565b60405180910390a3505050565b6127e48484846114c9565b6127f084848484612cfc565b61282f576040517f08c379a0000000000000000000000000000000000000000000000000000000008152600401612826906150df565b60405180910390fd5b50505050565b606060405180602001604052806000815250905090565b6060612857826112b0565b612896576040517f08c379a000000000000000000000000000000000000000000000000000000000815260040161288d90615171565b60405180910390fd5b60006128a0612835565b905060008151116128c057604051806020016040528060008152506128eb565b806128ca84612e84565b6040516020016128db929190614915565b6040516020818303038152906040525b915050919050565b60008151905060006a636f6e736f6c652e6c6f679050602083016000808483855afa5050505050565b505050565b6129b98282604051602401612937929190615191565b6040516020818303038152906040527f9710a9d0000000000000000000000000000000000000000000000000000000007bffffffffffffffffffffffffffffffffffffffffffffffffffffffff19166020820180517bffffffffffffffffffffffffffffffffffffffffffffffffffffffff83818316178352505050506128f3565b5050565b6129c5613b39565b6040516020016129d49061520d565b60405160208183030381529060405280519060200120826040516020016129fb9190614c7e565b604051602081830303815290604052805190602001201415612a88576040518060400160405280601a81526020017f4d79206d65737361676520746f2074686520776f726c642e2e2e00000000000081525091506040518060400160405280600281526020017f676d00000000000000000000000000000000000000000000000000000000000081525092505b604051806040016040528084815260200183815250905092915050565b60606000612ab4868686612fe5565b90506000612ac489898987613074565b90506000612ad48a8a8a88613114565b9050828282604051602001612aeb93929190615269565b60405160208183030381529060405293505050509695505050505050565b60606000825190506000811415612b325760405180602001604052806000815250915050612c9c565b60006003600283612b439190614b81565b612b4d91906152c9565b6004612b5991906152fa565b90506000602082612b6a9190614b81565b67ffffffffffffffff811115612b8357612b82613ee1565b5b6040519080825280601f01601f191660200182016040528015612bb55781602001600182028036833780820191505090505b5090506000604051806060016040528060408152602001615f19604091399050600181016020830160005b86811015612c595760038101905062ffffff818a015116603f8160121c168401518060081b905060ff603f83600c1c1686015116810190508060081b905060ff603f8360061c1686015116810190508060081b905060ff603f831686015116810190508060e01b90508084526004840193505050612be0565b506003860660018114612c735760028114612c8357612c8e565b613d3d60f01b6002830352612c8e565b603d60f81b60018303525b508484525050819450505050505b919050565b612cab8383613216565b612cb86000848484612cfc565b612cf7576040517f08c379a0000000000000000000000000000000000000000000000000000000008152600401612cee906150df565b60405180910390fd5b505050565b6000612d1d8473ffffffffffffffffffffffffffffffffffffffff166133e4565b15612e77578373ffffffffffffffffffffffffffffffffffffffff1663150b7a02612d4661131c565b8786866040518563ffffffff1660e01b8152600401612d68949392919061539e565b6020604051808303816000875af1925050508015612da457506040513d601f19601f82011682018060405250810190612da191906153ff565b60015b612e27573d8060008114612dd4576040519150601f19603f3d011682016040523d82523d6000602084013e612dd9565b606091505b50600081511415612e1f576040517f08c379a0000000000000000000000000000000000000000000000000000000008152600401612e16906150df565b60405180910390fd5b805181602001fd5b63150b7a0260e01b7bffffffffffffffffffffffffffffffffffffffffffffffffffffffff1916817bffffffffffffffffffffffffffffffffffffffffffffffffffffffff191614915050612e7c565b600190505b949350505050565b60606000821415612ecc576040518060400160405280600181526020017f30000000000000000000000000000000000000000000000000000000000000008152509050612fe0565b600082905060005b60008214612efe578080612ee79061542c565b915050600a82612ef791906152c9565b9150612ed4565b60008167ffffffffffffffff811115612f1a57612f19613ee1565b5b6040519080825280601f01601f191660200182016040528015612f4c5781602001600182028036833780820191505090505b5090505b60008514612fd957600182612f659190614585565b9150600a85612f749190615475565b6030612f809190614b81565b60f81b818381518110612f9657612f95614c4f565b5b60200101907effffffffffffffffffffffffffffffffffffffffffffffffffffffffffffff1916908160001a905350600a85612fd291906152c9565b9450612f50565b8093505050505b919050565b6060600061300c60018660ff1614612fff57610320613003565b6101905b61ffff166133f7565b9050600061303360048760ff16146130265761019061302a565b6103205b61ffff166133f7565b9050600085858484868688886040516020016130569897969594939291906156e0565b60405160208183030381529060405290508093505050509392505050565b60606000600b61308984600b80549050613580565b8154811061309a57613099614c4f565b5b906000526020600020016130c460048660ff16146130b957600e6130bc565b60085b60ff166133f7565b6130cd866135b0565b876130d8888b613682565b6130e2898c6138c6565b6040516020016130f796959493929190615b36565b604051602081830303815290604052905080915050949350505050565b6060600061313a60018560ff161461312e57610190613131565b60c85b61ffff166133f7565b9050600061316060048660ff16146131535760c8613157565b6101905b61ffff166133f7565b90506000806002613172876064613580565b61317c9190615475565b146131bc576040518060400160405280600181526020017f2d000000000000000000000000000000000000000000000000000000000000008152506131cd565b604051806020016040528060008152505b6131e06131db876078613580565b6133f7565b84848b6040516020016131f7959493929190615cca565b6040516020818303038152906040529050809350505050949350505050565b600073ffffffffffffffffffffffffffffffffffffffff168273ffffffffffffffffffffffffffffffffffffffff161415613286576040517f08c379a000000000000000000000000000000000000000000000000000000000815260040161327d90615d8d565b60405180910390fd5b61328f816112b0565b156132cf576040517f08c379a00000000000000000000000000000000000000000000000000000000081526004016132c690615df9565b60405180910390fd5b6132db6000838361291c565b6001600360008473ffffffffffffffffffffffffffffffffffffffff1673ffffffffffffffffffffffffffffffffffffffff168152602001908152602001600020600082825461332b9190614b81565b92505081905550816002600083815260200190815260200160002060006101000a81548173ffffffffffffffffffffffffffffffffffffffff021916908373ffffffffffffffffffffffffffffffffffffffff160217905550808273ffffffffffffffffffffffffffffffffffffffff16600073ffffffffffffffffffffffffffffffffffffffff167fddf252ad1be2c89b69c2b068fc378daa952ba7f163c4a11628f55a4df523b3ef60405160405180910390a45050565b600080823b905060008111915050919050565b6060600082141561343f576040518060400160405280600181526020017f3000000000000000000000000000000000000000000000000000000000000000815250905061357b565b600082905060005b6000821461347157808061345a9061542c565b915050600a8261346a91906152c9565b9150613447565b60008167ffffffffffffffff81111561348d5761348c613ee1565b5b6040519080825280601f01601f1916602001820160405280156134bf5781602001600182028036833780820191505090505b50905060008290505b60008614613573576001816134dd9190614585565b90506000600a80886134ef91906152c9565b6134f991906152fa565b876135049190614585565b60306135109190615e26565b905060008160f81b90508084848151811061352e5761352d614c4f565b5b60200101907effffffffffffffffffffffffffffffffffffffffffffffffffffffffffffff1916908160001a905350600a8861356a91906152c9565b975050506134c8565b819450505050505b919050565b600061358c6009611230565b8161359760096113dd565b84901c6135a49190615e6b565b61ffff16905092915050565b606060018260ff1614156135fb576040518060400160405280600481526020017f3232707800000000000000000000000000000000000000000000000000000000815250905061367d565b60028260ff161415613644576040518060400160405280600481526020017f3330707800000000000000000000000000000000000000000000000000000000815250905061367d565b6040518060400160405280600481526020017f343270780000000000000000000000000000000000000000000000000000000081525090505b919050565b606060018360ff161480613699575060028360ff16145b15613768576040516020016136ad9061520d565b60405160208183030381529060405280519060200120826040516020016136d49190614c7e565b604051602081830303815290604052805190602001201461372a576040518060400160405280600381526020017f3630250000000000000000000000000000000000000000000000000000000000815250613761565b6040518060400160405280600381526020017f35302500000000000000000000000000000000000000000000000000000000008152505b90506138c0565b60048360ff16141561383e576040516020016137839061520d565b60405160208183030381529060405280519060200120826040516020016137aa9190614c7e565b6040516020818303038152906040528051906020012014613800576040518060400160405280600381526020017f3630250000000000000000000000000000000000000000000000000000000000815250613837565b6040518060400160405280600381526020017f35302500000000000000000000000000000000000000000000000000000000008152505b90506138c0565b60028360ff161415613887576040518060400160405280600381526020017f353025000000000000000000000000000000000000000000000000000000000081525090506138c0565b6040518060400160405280600381526020017f353025000000000000000000000000000000000000000000000000000000000081525090505b92915050565b606060018360ff161415613911576040518060400160405280600581526020017f31323070780000000000000000000000000000000000000000000000000000008152509050613aad565b60028360ff1614156139e75760405160200161392c9061520d565b60405160208183030381529060405280519060200120826040516020016139539190614c7e565b60405160208183030381529060405280519060200120146139a9576040518060400160405280600581526020017f31343070780000000000000000000000000000000000000000000000000000008152506139e0565b6040518060400160405280600581526020017f31383070780000000000000000000000000000000000000000000000000000008152505b9050613aad565b6040516020016139f69061520d565b6040516020818303038152906040528051906020012082604051602001613a1d9190614c7e565b6040516020818303038152906040528051906020012014613a73576040518060400160405280600581526020017f3138307078000000000000000000000000000000000000000000000000000000815250613aaa565b6040518060400160405280600581526020017f33383070780000000000000000000000000000000000000000000000000000008152505b90505b92915050565b828054613abf9061436e565b90600052602060002090601f016020900481019282613ae15760008555613b28565b82601f10613afa57805160ff1916838001178555613b28565b82800160010185558215613b28579182015b82811115613b27578251825591602001919060010190613b0c565b5b509050613b359190613b60565b5090565b60405180604001604052806002905b6060815260200190600190039081613b485790505090565b5b80821115613b79576000816000905550600101613b61565b5090565b6000604051905090565b600080fd5b600080fd5b60007fffffffff0000000000000000000000000000000000000000000000000000000082169050919050565b613bc681613b91565b8114613bd157600080fd5b50565b600081359050613be381613bbd565b92915050565b600060208284031215613bff57613bfe613b87565b5b6000613c0d84828501613bd4565b91505092915050565b60008115159050919050565b613c2b81613c16565b82525050565b6000602082019050613c466000830184613c22565b92915050565b600081519050919050565b600082825260208201905092915050565b60005b83811015613c86578082015181840152602081019050613c6b565b83811115613c95576000848401525b50505050565b6000601f19601f8301169050919050565b6000613cb782613c4c565b613cc18185613c57565b9350613cd1818560208601613c68565b613cda81613c9b565b840191505092915050565b60006020820190508181036000830152613cff8184613cac565b905092915050565b6000819050919050565b613d1a81613d07565b8114613d2557600080fd5b50565b600081359050613d3781613d11565b92915050565b600060208284031215613d5357613d52613b87565b5b6000613d6184828501613d28565b91505092915050565b600073ffffffffffffffffffffffffffffffffffffffff82169050919050565b6000613d9582613d6a565b9050919050565b613da581613d8a565b82525050565b6000602082019050613dc06000830184613d9c565b92915050565b613dcf81613d8a565b8114613dda57600080fd5b50565b600081359050613dec81613dc6565b92915050565b60008060408385031215613e0957613e08613b87565b5b6000613e1785828601613ddd565b9250506020613e2885828601613d28565b9150509250929050565b613e3b81613d07565b82525050565b6000602082019050613e566000830184613e32565b92915050565b600080600060608486031215613e7557613e74613b87565b5b6000613e8386828701613ddd565b9350506020613e9486828701613ddd565b9250506040613ea586828701613d28565b9150509250925092565b600060208284031215613ec557613ec4613b87565b5b6000613ed384828501613ddd565b91505092915050565b600080fd5b7f4e487b7100000000000000000000000000000000000000000000000000000000600052604160045260246000fd5b613f1982613c9b565b810181811067ffffffffffffffff82111715613f3857613f37613ee1565b5b80604052505050565b6000613f4b613b7d565b9050613f578282613f10565b919050565b600067ffffffffffffffff821115613f7757613f76613ee1565b5b602082029050602081019050919050565b600080fd5b600080fd5b600067ffffffffffffffff821115613fad57613fac613ee1565b5b613fb682613c9b565b9050602081019050919050565b82818337600083830152505050565b6000613fe5613fe084613f92565b613f41565b90508281526020810184848401111561400157614000613f8d565b5b61400c848285613fc3565b509392505050565b600082601f83011261402957614028613edc565b5b8135614039848260208601613fd2565b91505092915050565b600061405561405084613f5c565b613f41565b9050808382526020820190506020840283018581111561407857614077613f88565b5b835b818110156140bf57803567ffffffffffffffff81111561409d5761409c613edc565b5b8086016140aa8982614014565b8552602085019450505060208101905061407a565b5050509392505050565b600082601f8301126140de576140dd613edc565b5b81356140ee848260208601614042565b91505092915050565b6000806040838503121561410e5761410d613b87565b5b600083013567ffffffffffffffff81111561412c5761412b613b8c565b5b614138858286016140c9565b925050602083013567ffffffffffffffff81111561415957614158613b8c565b5b614165858286016140c9565b9150509250929050565b61417881613c16565b811461418357600080fd5b50565b6000813590506141958161416f565b92915050565b600080604083850312156141b2576141b1613b87565b5b60006141c085828601613ddd565b92505060206141d185828601614186565b9150509250929050565b600067ffffffffffffffff8211156141f6576141f5613ee1565b5b6141ff82613c9b565b9050602081019050919050565b600061421f61421a846141db565b613f41565b90508281526020810184848401111561423b5761423a613f8d565b5b614246848285613fc3565b509392505050565b600082601f83011261426357614262613edc565b5b813561427384826020860161420c565b91505092915050565b6000806000806080858703121561429657614295613b87565b5b60006142a487828801613ddd565b94505060206142b587828801613ddd565b93505060406142c687828801613d28565b925050606085013567ffffffffffffffff8111156142e7576142e6613b8c565b5b6142f38782880161424e565b91505092959194509250565b6000806040838503121561431657614315613b87565b5b600061432485828601613ddd565b925050602061433585828601613ddd565b9150509250929050565b7f4e487b7100000000000000000000000000000000000000000000000000000000600052602260045260246000fd5b6000600282049050600182168061438657607f821691505b6020821081141561439a5761439961433f565b5b50919050565b7f4552433732313a20617070726f76656420717565727920666f72206e6f6e657860008201527f697374656e7420746f6b656e0000000000000000000000000000000000000000602082015250565b60006143fc602c83613c57565b9150614407826143a0565b604082019050919050565b6000602082019050818103600083015261442b816143ef565b9050919050565b7f4552433732313a20617070726f76616c20746f2063757272656e74206f776e6560008201527f7200000000000000000000000000000000000000000000000000000000000000602082015250565b600061448e602183613c57565b915061449982614432565b604082019050919050565b600060208201905081810360008301526144bd81614481565b9050919050565b7f4552433732313a20617070726f76652063616c6c6572206973206e6f74206f7760008201527f6e6572206e6f7220617070726f76656420666f7220616c6c0000000000000000602082015250565b6000614520603883613c57565b915061452b826144c4565b604082019050919050565b6000602082019050818103600083015261454f81614513565b9050919050565b7f4e487b7100000000000000000000000000000000000000000000000000000000600052601160045260246000fd5b600061459082613d07565b915061459b83613d07565b9250828210156145ae576145ad614556565b5b828203905092915050565b7f4552433732313a207472616e736665722063616c6c6572206973206e6f74206f60008201527f776e6572206e6f7220617070726f766564000000000000000000000000000000602082015250565b6000614615603183613c57565b9150614620826145b9565b604082019050919050565b6000602082019050818103600083015261464481614608565b9050919050565b7f4f776e61626c653a2063616c6c6572206973206e6f7420746865206f776e6572600082015250565b6000614681602083613c57565b915061468c8261464b565b602082019050919050565b600060208201905081810360008301526146b081614674565b9050919050565b7f4552433732313a206f776e657220717565727920666f72206e6f6e657869737460008201527f656e7420746f6b656e0000000000000000000000000000000000000000000000602082015250565b6000614713602983613c57565b915061471e826146b7565b604082019050919050565b6000602082019050818103600083015261474281614706565b9050919050565b7f4552433732313a2062616c616e636520717565727920666f7220746865207a6560008201527f726f206164647265737300000000000000000000000000000000000000000000602082015250565b60006147a5602a83613c57565b91506147b082614749565b604082019050919050565b600060208201905081810360008301526147d481614798565b9050919050565b7f57726f6e6720616d6f756e74206f66204554482073656e742e00000000000000600082015250565b6000614811601983613c57565b915061481c826147db565b602082019050919050565b6000602082019050818103600083015261484081614804565b9050919050565b7f45524337323155524953746f726167653a2055524920717565727920666f722060008201527f6e6f6e6578697374656e7420746f6b656e000000000000000000000000000000602082015250565b60006148a3603183613c57565b91506148ae82614847565b604082019050919050565b600060208201905081810360008301526148d281614896565b9050919050565b600081905092915050565b60006148ef82613c4c565b6148f981856148d9565b9350614909818560208601613c68565b80840191505092915050565b600061492182856148e4565b915061492d82846148e4565b91508190509392505050565b7f4f776e61626c653a206e6577206f776e657220697320746865207a65726f206160008201527f6464726573730000000000000000000000000000000000000000000000000000602082015250565b6000614995602683613c57565b91506149a082614939565b604082019050919050565b600060208201905081810360008301526149c481614988565b9050919050565b7f4552433732313a206f70657261746f7220717565727920666f72206e6f6e657860008201527f697374656e7420746f6b656e0000000000000000000000000000000000000000602082015250565b6000614a27602c83613c57565b9150614a32826149cb565b604082019050919050565b60006020820190508181036000830152614a5681614a1a565b9050919050565b7f4552433732313a207472616e73666572206f6620746f6b656e2074686174206960008201527f73206e6f74206f776e0000000000000000000000000000000000000000000000602082015250565b6000614ab9602983613c57565b9150614ac482614a5d565b604082019050919050565b60006020820190508181036000830152614ae881614aac565b9050919050565b7f4552433732313a207472616e7366657220746f20746865207a65726f2061646460008201527f7265737300000000000000000000000000000000000000000000000000000000602082015250565b6000614b4b602483613c57565b9150614b5682614aef565b604082019050919050565b60006020820190508181036000830152614b7a81614b3e565b9050919050565b6000614b8c82613d07565b9150614b9783613d07565b9250827fffffffffffffffffffffffffffffffffffffffffffffffffffffffffffffffff03821115614bcc57614bcb614556565b5b828201905092915050565b6000819050919050565b6000819050919050565b614bfc614bf782614bd7565b614be1565b82525050565b6000819050919050565b614c1d614c1882613d07565b614c02565b82525050565b6000614c2f8285614beb565b602082019150614c3f8284614c0c565b6020820191508190509392505050565b7f4e487b7100000000000000000000000000000000000000000000000000000000600052603260045260246000fd5b6000614c8a82846148e4565b915081905092915050565b6000614ca182866148e4565b9150614cad82856148e4565b9150614cb982846148e4565b9150819050949350505050565b6000614cd282876148e4565b9150614cde82866148e4565b9150614cea82856148e4565b9150614cf682846148e4565b915081905095945050505050565b7f7b226e616d65223a220000000000000000000000000000000000000000000000600082015250565b6000614d3a6009836148d9565b9150614d4582614d04565b600982019050919050565b7f456d6f6a69766572736500000000000000000000000000000000000000000000600082015250565b6000614d86600a836148d9565b9150614d9182614d50565b600a82019050919050565b7f222c20226465736372697074696f6e223a22416e20656d6f6a692d626173656460008201527f204e465421222c202261747472696275746573223a22222c2022696d6167652260208201527f3a22646174613a696d6167652f7376672b786d6c3b6261736536342c00000000604082015250565b6000614e1e605c836148d9565b9150614e2982614d9c565b605c82019050919050565b7f227d000000000000000000000000000000000000000000000000000000000000600082015250565b6000614e6a6002836148d9565b9150614e7582614e34565b600282019050919050565b6000614e8b82614d2d565b9150614e9682614d79565b9150614ea182614e11565b9150614ead82846148e4565b9150614eb882614e5d565b915081905092915050565b7f646174613a6170706c69636174696f6e2f6a736f6e3b6261736536342c000000600082015250565b6000614ef9601d836148d9565b9150614f0482614ec3565b601d82019050919050565b6000614f1a82614eec565b9150614f2682846148e4565b915081905092915050565b7f45524337323155524953746f726167653a2055524920736574206f66206e6f6e60008201527f6578697374656e7420746f6b656e000000000000000000000000000000000000602082015250565b6000614f8d602e83613c57565b9150614f9882614f31565b604082019050919050565b60006020820190508181036000830152614fbc81614f80565b9050919050565b60006060820190508181036000830152614fdd8186613cac565b9050614fec6020830185613e32565b614ff96040830184613d9c565b949350505050565b7f4552433732313a20617070726f766520746f2063616c6c657200000000000000600082015250565b6000615037601983613c57565b915061504282615001565b602082019050919050565b600060208201905081810360008301526150668161502a565b9050919050565b7f4552433732313a207472616e7366657220746f206e6f6e20455243373231526560008201527f63656976657220696d706c656d656e7465720000000000000000000000000000602082015250565b60006150c9603283613c57565b91506150d48261506d565b604082019050919050565b600060208201905081810360008301526150f8816150bc565b9050919050565b7f4552433732314d657461646174613a2055524920717565727920666f72206e6f60008201527f6e6578697374656e7420746f6b656e0000000000000000000000000000000000602082015250565b600061515b602f83613c57565b9150615166826150ff565b604082019050919050565b6000602082019050818103600083015261518a8161514e565b9050919050565b600060408201905081810360008301526151ab8185613cac565b90506151ba6020830184613e32565b9392505050565b7f676d000000000000000000000000000000000000000000000000000000000000600082015250565b60006151f76002836148d9565b9150615202826151c1565b600282019050919050565b6000615218826151ea565b9150819050919050565b600081519050919050565b600081905092915050565b600061524382615222565b61524d818561522d565b935061525d818560208601613c68565b80840191505092915050565b60006152758286615238565b91506152818285615238565b915061528d8284615238565b9150819050949350505050565b7f4e487b7100000000000000000000000000000000000000000000000000000000600052601260045260246000fd5b60006152d482613d07565b91506152df83613d07565b9250826152ef576152ee61529a565b5b828204905092915050565b600061530582613d07565b915061531083613d07565b9250817fffffffffffffffffffffffffffffffffffffffffffffffffffffffffffffffff048311821515161561534957615348614556565b5b828202905092915050565b600082825260208201905092915050565b600061537082615222565b61537a8185615354565b935061538a818560208601613c68565b61539381613c9b565b840191505092915050565b60006080820190506153b36000830187613d9c565b6153c06020830186613d9c565b6153cd6040830185613e32565b81810360608301526153df8184615365565b905095945050505050565b6000815190506153f981613bbd565b92915050565b60006020828403121561541557615414613b87565b5b6000615423848285016153ea565b91505092915050565b600061543782613d07565b91507fffffffffffffffffffffffffffffffffffffffffffffffffffffffffffffffff82141561546a57615469614556565b5b600182019050919050565b600061548082613d07565b915061548b83613d07565b92508261549b5761549a61529a565b5b828206905092915050565b7f3c73766720783d27000000000000000000000000000000000000000000000000600082015250565b60006154dc6008836148d9565b91506154e7826154a6565b600882019050919050565b7f2720793d27000000000000000000000000000000000000000000000000000000600082015250565b60006155286005836148d9565b9150615533826154f2565b600582019050919050565b7f272077696474683d270000000000000000000000000000000000000000000000600082015250565b60006155746009836148d9565b915061557f8261553e565b600982019050919050565b7f27206865696768743d2700000000000000000000000000000000000000000000600082015250565b60006155c0600a836148d9565b91506155cb8261558a565b600a82019050919050565b7f272076696577426f783d27302030200000000000000000000000000000000000600082015250565b600061560c600f836148d9565b9150615617826155d6565b600f82019050919050565b7f2000000000000000000000000000000000000000000000000000000000000000600082015250565b60006156586001836148d9565b915061566382615622565b600182019050919050565b7f2720786d6c6e733d27687474703a2f2f7777772e77332e6f72672f323030302f60008201527f737667273e3c726563742077696474683d270000000000000000000000000000602082015250565b60006156ca6032836148d9565b91506156d58261566e565b603282019050919050565b60006156eb826154cf565b91506156f7828b6148e4565b91506157028261551b565b915061570e828a6148e4565b915061571982615567565b915061572582896148e4565b9150615730826155b3565b915061573c82886148e4565b9150615747826155ff565b915061575382876148e4565b915061575e8261564b565b915061576a82866148e4565b9150615775826156bd565b915061578182856148e4565b915061578c826155b3565b915061579882846148e4565b91508190509998505050505050505050565b7f27207374796c653d2766696c6c3a000000000000000000000000000000000000600082015250565b60006157e0600e836148d9565b91506157eb826157aa565b600e82019050919050565b60008190508160005260206000209050919050565b600081546158188161436e565b61582281866148d9565b9450600182166000811461583d576001811461584e57615881565b60ff19831686528186019350615881565b615857856157f6565b60005b838110156158795781548189015260018201915060208101905061585a565b838801955050505b50505092915050565b7f3b27202f3e000000000000000000000000000000000000000000000000000000600082015250565b60006158c06005836148d9565b91506158cb8261588a565b600582019050919050565b7f3c7465787420783d2735252720793d2700000000000000000000000000000000600082015250565b600061590c6010836148d9565b9150615917826158d6565b601082019050919050565b7f252720666f6e742d73697a653d27000000000000000000000000000000000000600082015250565b6000615958600e836148d9565b915061596382615922565b600e82019050919050565b7f2720666f6e742d66616d696c793d274d6f6e6f73706163652c2048656c76657460008201527f6963612c2073616e732d7365726966273e000000000000000000000000000000602082015250565b60006159ca6031836148d9565b91506159d58261596e565b603182019050919050565b7f3c2f746578743e3c7465787420783d273530252720793d270000000000000000600082015250565b6000615a166018836148d9565b9150615a21826159e0565b601882019050919050565b7f2720646f6d696e616e742d626173656c696e653d276d6964646c652720666f6e60008201527f742d66616d696c793d274d6f6e6f73706163652c2048656c7665746963612c2060208201527f73616e732d73657269662720746578742d616e63686f723d276d6964646c652760408201527f20666f6e742d73697a653d270000000000000000000000000000000000000000606082015250565b6000615ad4606c836148d9565b9150615adf82615a2c565b606c82019050919050565b7f27207472616e73666f726d3d27726f7461746528000000000000000000000000600082015250565b6000615b206014836148d9565b9150615b2b82615aea565b601482019050919050565b6000615b41826157d3565b9150615b4d828961580b565b9150615b58826158b3565b9150615b63826158ff565b9150615b6f82886148e4565b9150615b7a8261594b565b9150615b8682876148e4565b9150615b91826159bd565b9150615b9d82866148e4565b9150615ba882615a09565b9150615bb482856148e4565b9150615bbf82615ac7565b9150615bcb82846148e4565b9150615bd682615b13565b9150819050979650505050505050565b7f2c00000000000000000000000000000000000000000000000000000000000000600082015250565b6000615c1c6001836148d9565b9150615c2782615be6565b600182019050919050565b7f29273e0000000000000000000000000000000000000000000000000000000000600082015250565b6000615c686003836148d9565b9150615c7382615c32565b600382019050919050565b7f3c2f746578743e3c2f7376673e00000000000000000000000000000000000000600082015250565b6000615cb4600d836148d9565b9150615cbf82615c7e565b600d82019050919050565b6000615cd682886148e4565b9150615ce282876148e4565b9150615ced8261564b565b9150615cf982866148e4565b9150615d0482615c0f565b9150615d1082856148e4565b9150615d1b82615c5b565b9150615d2782846148e4565b9150615d3282615ca7565b91508190509695505050505050565b7f4552433732313a206d696e7420746f20746865207a65726f2061646472657373600082015250565b6000615d77602083613c57565b9150615d8282615d41565b602082019050919050565b60006020820190508181036000830152615da681615d6a565b9050919050565b7f4552433732313a20746f6b656e20616c7265616479206d696e74656400000000600082015250565b6000615de3601c83613c57565b9150615dee82615dad565b602082019050919050565b60006020820190508181036000830152615e1281615dd6565b9050919050565b600060ff82169050919050565b6000615e3182615e19565b9150615e3c83615e19565b92508260ff03821115615e5257615e51614556565b5b828201905092915050565b600061ffff82169050919050565b6000615e7682615e5d565b9150615e8183615e5d565b925082615e9157615e9061529a565b5b82820690509291505056fe416e204e465420772f20494420257320686173206265656e206d696e74656420746f2025733c7376672077696474683d2738303027206865696768743d27383030272076696577426f783d2730203020383030203830302720786d6c6e733d27687474703a2f2f7777772e77332e6f72672f323030302f737667273e4142434445464748494a4b4c4d4e4f505152535455565758595a6162636465666768696a6b6c6d6e6f707172737475767778797a303132333435363738392b2fa2646970667358221220a84d231864427958cb39c2255a30d124199dd977cee69b1bab374fe1944134a064736f6c634300080a0033",
  "devdoc": {
    "kind": "dev",
    "methods": {
      "approve(address,uint256)": {
        "details": "See {IERC721-approve}."
      },
      "balanceOf(address)": {
        "details": "See {IERC721-balanceOf}."
      },
      "getApproved(uint256)": {
        "details": "See {IERC721-getApproved}."
      },
      "isApprovedForAll(address,address)": {
        "details": "See {IERC721-isApprovedForAll}."
      },
      "name()": {
        "details": "See {IERC721Metadata-name}."
      },
      "owner()": {
        "details": "Returns the address of the current owner."
      },
      "ownerOf(uint256)": {
        "details": "See {IERC721-ownerOf}."
      },
      "renounceOwnership()": {
        "details": "Leaves the contract without owner. It will not be possible to call `onlyOwner` functions anymore. Can only be called by the current owner. NOTE: Renouncing ownership will leave the contract without an owner, thereby removing any functionality that is only available to the owner."
      },
      "safeTransferFrom(address,address,uint256)": {
        "details": "See {IERC721-safeTransferFrom}."
      },
      "safeTransferFrom(address,address,uint256,bytes)": {
        "details": "See {IERC721-safeTransferFrom}."
      },
      "setApprovalForAll(address,bool)": {
        "details": "See {IERC721-setApprovalForAll}."
      },
      "supportsInterface(bytes4)": {
        "details": "See {IERC165-supportsInterface}."
      },
      "symbol()": {
        "details": "See {IERC721Metadata-symbol}."
      },
      "tokenURI(uint256)": {
        "details": "See {IERC721Metadata-tokenURI}."
      },
      "transferFrom(address,address,uint256)": {
        "details": "See {IERC721-transferFrom}."
      },
      "transferOwnership(address)": {
        "details": "Transfers ownership of the contract to a new account (`newOwner`). Can only be called by the current owner."
      }
    },
    "version": 1
  },
  "userdoc": {
    "kind": "user",
    "methods": {},
    "version": 1
  },
  "storageLayout": {
    "storage": [
      {
        "astId": 130,
        "contract": "contracts/EmojiSVG.sol:Emojiverse",
        "label": "_name",
        "offset": 0,
        "slot": "0",
        "type": "t_string_storage"
      },
      {
        "astId": 132,
        "contract": "contracts/EmojiSVG.sol:Emojiverse",
        "label": "_symbol",
        "offset": 0,
        "slot": "1",
        "type": "t_string_storage"
      },
      {
        "astId": 136,
        "contract": "contracts/EmojiSVG.sol:Emojiverse",
        "label": "_owners",
        "offset": 0,
        "slot": "2",
        "type": "t_mapping(t_uint256,t_address)"
      },
      {
        "astId": 140,
        "contract": "contracts/EmojiSVG.sol:Emojiverse",
        "label": "_balances",
        "offset": 0,
        "slot": "3",
        "type": "t_mapping(t_address,t_uint256)"
      },
      {
        "astId": 144,
        "contract": "contracts/EmojiSVG.sol:Emojiverse",
        "label": "_tokenApprovals",
        "offset": 0,
        "slot": "4",
        "type": "t_mapping(t_uint256,t_address)"
      },
      {
        "astId": 150,
        "contract": "contracts/EmojiSVG.sol:Emojiverse",
        "label": "_operatorApprovals",
        "offset": 0,
        "slot": "5",
        "type": "t_mapping(t_address,t_mapping(t_address,t_bool))"
      },
      {
        "astId": 1082,
        "contract": "contracts/EmojiSVG.sol:Emojiverse",
        "label": "_tokenURIs",
        "offset": 0,
        "slot": "6",
        "type": "t_mapping(t_uint256,t_string_storage)"
      },
      {
        "astId": 7,
        "contract": "contracts/EmojiSVG.sol:Emojiverse",
        "label": "_owner",
        "offset": 0,
        "slot": "7",
        "type": "t_address"
      },
      {
        "astId": 1875,
        "contract": "contracts/EmojiSVG.sol:Emojiverse",
        "label": "_tokenIds",
        "offset": 0,
        "slot": "8",
        "type": "t_struct(Counter)1549_storage"
      },
      {
        "astId": 1878,
        "contract": "contracts/EmojiSVG.sol:Emojiverse",
        "label": "_randShift",
        "offset": 0,
        "slot": "9",
        "type": "t_struct(Counter)1549_storage"
      },
      {
        "astId": 1881,
        "contract": "contracts/EmojiSVG.sol:Emojiverse",
        "label": "mintPrice",
        "offset": 0,
        "slot": "10",
        "type": "t_uint256"
      },
      {
        "astId": 1949,
        "contract": "contracts/EmojiSVG.sol:Emojiverse",
        "label": "backgroundColors",
        "offset": 0,
        "slot": "11",
        "type": "t_array(t_string_storage)dyn_storage"
      }
    ],
    "types": {
      "t_address": {
        "encoding": "inplace",
        "label": "address",
        "numberOfBytes": "20"
      },
      "t_array(t_string_storage)dyn_storage": {
        "base": "t_string_storage",
        "encoding": "dynamic_array",
        "label": "string[]",
        "numberOfBytes": "32"
      },
      "t_bool": {
        "encoding": "inplace",
        "label": "bool",
        "numberOfBytes": "1"
      },
      "t_mapping(t_address,t_bool)": {
        "encoding": "mapping",
        "key": "t_address",
        "label": "mapping(address => bool)",
        "numberOfBytes": "32",
        "value": "t_bool"
      },
      "t_mapping(t_address,t_mapping(t_address,t_bool))": {
        "encoding": "mapping",
        "key": "t_address",
        "label": "mapping(address => mapping(address => bool))",
        "numberOfBytes": "32",
        "value": "t_mapping(t_address,t_bool)"
      },
      "t_mapping(t_address,t_uint256)": {
        "encoding": "mapping",
        "key": "t_address",
        "label": "mapping(address => uint256)",
        "numberOfBytes": "32",
        "value": "t_uint256"
      },
      "t_mapping(t_uint256,t_address)": {
        "encoding": "mapping",
        "key": "t_uint256",
        "label": "mapping(uint256 => address)",
        "numberOfBytes": "32",
        "value": "t_address"
      },
      "t_mapping(t_uint256,t_string_storage)": {
        "encoding": "mapping",
        "key": "t_uint256",
        "label": "mapping(uint256 => string)",
        "numberOfBytes": "32",
        "value": "t_string_storage"
      },
      "t_string_storage": {
        "encoding": "bytes",
        "label": "string",
        "numberOfBytes": "32"
      },
      "t_struct(Counter)1549_storage": {
        "encoding": "inplace",
        "label": "struct Counters.Counter",
        "members": [
          {
            "astId": 1548,
            "contract": "contracts/EmojiSVG.sol:Emojiverse",
            "label": "_value",
            "offset": 0,
            "slot": "0",
            "type": "t_uint256"
          }
        ],
        "numberOfBytes": "32"
      },
      "t_uint256": {
        "encoding": "inplace",
        "label": "uint256",
        "numberOfBytes": "32"
      }
    }
  }
}